{
  "_format": "hh-sol-artifact-1",
  "contractName": "VoxelHelosGenesis",
  "sourceName": "contracts/VoxelHelosGenesis.sol",
  "abi": [
    {
      "inputs": [],
      "stateMutability": "nonpayable",
      "type": "constructor"
    },
    {
      "anonymous": false,
      "inputs": [
        {
          "indexed": true,
          "internalType": "address",
          "name": "owner",
          "type": "address"
        },
        {
          "indexed": true,
          "internalType": "address",
          "name": "approved",
          "type": "address"
        },
        {
          "indexed": true,
          "internalType": "uint256",
          "name": "tokenId",
          "type": "uint256"
        }
      ],
      "name": "Approval",
      "type": "event"
    },
    {
      "anonymous": false,
      "inputs": [
        {
          "indexed": true,
          "internalType": "address",
          "name": "owner",
          "type": "address"
        },
        {
          "indexed": true,
          "internalType": "address",
          "name": "operator",
          "type": "address"
        },
        {
          "indexed": false,
          "internalType": "bool",
          "name": "approved",
          "type": "bool"
        }
      ],
      "name": "ApprovalForAll",
      "type": "event"
    },
    {
      "anonymous": false,
      "inputs": [
        {
          "indexed": true,
          "internalType": "address",
          "name": "previousOwner",
          "type": "address"
        },
        {
          "indexed": true,
          "internalType": "address",
          "name": "newOwner",
          "type": "address"
        }
      ],
      "name": "OwnershipTransferred",
      "type": "event"
    },
    {
      "anonymous": false,
      "inputs": [
        {
          "indexed": true,
          "internalType": "address",
          "name": "from",
          "type": "address"
        },
        {
          "indexed": true,
          "internalType": "address",
          "name": "to",
          "type": "address"
        },
        {
          "indexed": true,
          "internalType": "uint256",
          "name": "tokenId",
          "type": "uint256"
        }
      ],
      "name": "Transfer",
      "type": "event"
    },
    {
      "inputs": [],
      "name": "_tokenIdCounter",
      "outputs": [
        {
          "internalType": "uint256",
          "name": "_value",
          "type": "uint256"
        }
      ],
      "stateMutability": "view",
      "type": "function"
    },
    {
      "inputs": [
        {
          "internalType": "address",
          "name": "to",
          "type": "address"
        },
        {
          "internalType": "uint256",
          "name": "tokenId",
          "type": "uint256"
        }
      ],
      "name": "approve",
      "outputs": [],
      "stateMutability": "nonpayable",
      "type": "function"
    },
    {
      "inputs": [
        {
          "internalType": "address",
          "name": "owner",
          "type": "address"
        }
      ],
      "name": "balanceOf",
      "outputs": [
        {
          "internalType": "uint256",
          "name": "",
          "type": "uint256"
        }
      ],
      "stateMutability": "view",
      "type": "function"
    },
    {
      "inputs": [
        {
          "internalType": "uint256",
          "name": "tokenId",
          "type": "uint256"
        }
      ],
      "name": "getApproved",
      "outputs": [
        {
          "internalType": "address",
          "name": "",
          "type": "address"
        }
      ],
      "stateMutability": "view",
      "type": "function"
    },
    {
      "inputs": [
        {
          "internalType": "address",
          "name": "owner",
          "type": "address"
        },
        {
          "internalType": "address",
          "name": "operator",
          "type": "address"
        }
      ],
      "name": "isApprovedForAll",
      "outputs": [
        {
          "internalType": "bool",
          "name": "",
          "type": "bool"
        }
      ],
      "stateMutability": "view",
      "type": "function"
    },
    {
      "inputs": [],
      "name": "maxSupply",
      "outputs": [
        {
          "internalType": "uint256",
          "name": "",
          "type": "uint256"
        }
      ],
      "stateMutability": "view",
      "type": "function"
    },
    {
      "inputs": [],
      "name": "name",
      "outputs": [
        {
          "internalType": "string",
          "name": "",
          "type": "string"
        }
      ],
      "stateMutability": "view",
      "type": "function"
    },
    {
      "inputs": [],
      "name": "owner",
      "outputs": [
        {
          "internalType": "address",
          "name": "",
          "type": "address"
        }
      ],
      "stateMutability": "view",
      "type": "function"
    },
    {
      "inputs": [
        {
          "internalType": "uint256",
          "name": "tokenId",
          "type": "uint256"
        }
      ],
      "name": "ownerOf",
      "outputs": [
        {
          "internalType": "address",
          "name": "",
          "type": "address"
        }
      ],
      "stateMutability": "view",
      "type": "function"
    },
    {
      "inputs": [],
      "name": "price",
      "outputs": [
        {
          "internalType": "uint256",
          "name": "",
          "type": "uint256"
        }
      ],
      "stateMutability": "view",
      "type": "function"
    },
    {
      "inputs": [],
      "name": "renounceOwnership",
      "outputs": [],
      "stateMutability": "nonpayable",
      "type": "function"
    },
    {
      "inputs": [
        {
          "internalType": "address",
          "name": "to",
          "type": "address"
        }
      ],
      "name": "safeMint",
      "outputs": [],
      "stateMutability": "nonpayable",
      "type": "function"
    },
    {
      "inputs": [
        {
          "internalType": "address",
          "name": "to",
          "type": "address"
        },
        {
          "internalType": "uint256",
          "name": "_price",
          "type": "uint256"
        }
      ],
      "name": "safeMint",
      "outputs": [],
      "stateMutability": "payable",
      "type": "function"
    },
    {
      "inputs": [
        {
          "internalType": "address",
          "name": "from",
          "type": "address"
        },
        {
          "internalType": "address",
          "name": "to",
          "type": "address"
        },
        {
          "internalType": "uint256",
          "name": "tokenId",
          "type": "uint256"
        }
      ],
      "name": "safeTransferFrom",
      "outputs": [],
      "stateMutability": "nonpayable",
      "type": "function"
    },
    {
      "inputs": [
        {
          "internalType": "address",
          "name": "from",
          "type": "address"
        },
        {
          "internalType": "address",
          "name": "to",
          "type": "address"
        },
        {
          "internalType": "uint256",
          "name": "tokenId",
          "type": "uint256"
        },
        {
          "internalType": "bytes",
          "name": "_data",
          "type": "bytes"
        }
      ],
      "name": "safeTransferFrom",
      "outputs": [],
      "stateMutability": "nonpayable",
      "type": "function"
    },
    {
      "inputs": [
        {
          "internalType": "address",
          "name": "operator",
          "type": "address"
        },
        {
          "internalType": "bool",
          "name": "approved",
          "type": "bool"
        }
      ],
      "name": "setApprovalForAll",
      "outputs": [],
      "stateMutability": "nonpayable",
      "type": "function"
    },
    {
      "inputs": [
        {
          "internalType": "bytes4",
          "name": "interfaceId",
          "type": "bytes4"
        }
      ],
      "name": "supportsInterface",
      "outputs": [
        {
          "internalType": "bool",
          "name": "",
          "type": "bool"
        }
      ],
      "stateMutability": "view",
      "type": "function"
    },
    {
      "inputs": [],
      "name": "symbol",
      "outputs": [
        {
          "internalType": "string",
          "name": "",
          "type": "string"
        }
      ],
      "stateMutability": "view",
      "type": "function"
    },
    {
      "inputs": [
        {
          "internalType": "uint256",
          "name": "tokenId",
          "type": "uint256"
        }
      ],
      "name": "tokenURI",
      "outputs": [
        {
          "internalType": "string",
          "name": "",
          "type": "string"
        }
      ],
      "stateMutability": "view",
      "type": "function"
    },
    {
      "inputs": [
        {
          "internalType": "address",
          "name": "from",
          "type": "address"
        },
        {
          "internalType": "address",
          "name": "to",
          "type": "address"
        },
        {
          "internalType": "uint256",
          "name": "tokenId",
          "type": "uint256"
        }
      ],
      "name": "transferFrom",
      "outputs": [],
      "stateMutability": "nonpayable",
      "type": "function"
    },
    {
      "inputs": [
        {
          "internalType": "address",
          "name": "newOwner",
          "type": "address"
        }
      ],
      "name": "transferOwnership",
      "outputs": [],
      "stateMutability": "nonpayable",
      "type": "function"
    }
  ],
  "bytecode": "0x608060405266b1a2bc2ec50000600855610fa16009553480156200002257600080fd5b506040518060400160405280601381526020017f566f78656c2048656c6f732047656e65736973000000000000000000000000008152506040518060400160405280600381526020017f56484700000000000000000000000000000000000000000000000000000000008152508160009080519060200190620000a7929190620001b7565b508060019080519060200190620000c0929190620001b7565b505050620000e3620000d7620000e960201b60201c565b620000f160201b60201c565b620002cc565b600033905090565b6000600660009054906101000a900473ffffffffffffffffffffffffffffffffffffffff16905081600660006101000a81548173ffffffffffffffffffffffffffffffffffffffff021916908373ffffffffffffffffffffffffffffffffffffffff1602179055508173ffffffffffffffffffffffffffffffffffffffff168173ffffffffffffffffffffffffffffffffffffffff167f8be0079c531659141344cd1fd0a4f28419497f9722a3daafe3b4186f6b6457e060405160405180910390a35050565b828054620001c59062000267565b90600052602060002090601f016020900481019282620001e9576000855562000235565b82601f106200020457805160ff191683800117855562000235565b8280016001018555821562000235579182015b828111156200023457825182559160200191906001019062000217565b5b50905062000244919062000248565b5090565b5b808211156200026357600081600090555060010162000249565b5090565b600060028204905060018216806200028057607f821691505b602082108114156200029757620002966200029d565b5b50919050565b7f4e487b7100000000000000000000000000000000000000000000000000000000600052602260045260246000fd5b612eb780620002dc6000396000f3fe60806040526004361061012a5760003560e01c806384c4bd4b116100ab578063a22cb4651161006f578063a22cb465146103d1578063b88d4fde146103fa578063c87b56dd14610423578063d5abeb0114610460578063e985e9c51461048b578063f2fde38b146104c85761012a565b806384c4bd4b146103095780638da5cb5b1461033457806395d89b411461035f578063a035b1fe1461038a578063a1448194146103b55761012a565b806340d097c3116100f257806340d097c31461022657806342842e0e1461024f5780636352211e1461027857806370a08231146102b5578063715018a6146102f25761012a565b806301ffc9a71461012f57806306fdde031461016c578063081812fc14610197578063095ea7b3146101d457806323b872dd146101fd575b600080fd5b34801561013b57600080fd5b5061015660048036038101906101519190611eca565b6104f1565b60405161016391906122ff565b60405180910390f35b34801561017857600080fd5b506101816105d3565b60405161018e919061231a565b60405180910390f35b3480156101a357600080fd5b506101be60048036038101906101b99190611f24565b610665565b6040516101cb9190612298565b60405180910390f35b3480156101e057600080fd5b506101fb60048036038101906101f69190611e8a565b6106ea565b005b34801561020957600080fd5b50610224600480360381019061021f9190611d74565b610802565b005b34801561023257600080fd5b5061024d60048036038101906102489190611d07565b610862565b005b34801561025b57600080fd5b5061027660048036038101906102719190611d74565b610904565b005b34801561028457600080fd5b5061029f600480360381019061029a9190611f24565b610924565b6040516102ac9190612298565b60405180910390f35b3480156102c157600080fd5b506102dc60048036038101906102d79190611d07565b6109d6565b6040516102e9919061255c565b60405180910390f35b3480156102fe57600080fd5b50610307610a8e565b005b34801561031557600080fd5b5061031e610b16565b60405161032b919061255c565b60405180910390f35b34801561034057600080fd5b50610349610b22565b6040516103569190612298565b60405180910390f35b34801561036b57600080fd5b50610374610b4c565b604051610381919061231a565b60405180910390f35b34801561039657600080fd5b5061039f610bde565b6040516103ac919061255c565b60405180910390f35b6103cf60048036038101906103ca9190611e8a565b610be4565b005b3480156103dd57600080fd5b506103f860048036038101906103f39190611e4a565b610c56565b005b34801561040657600080fd5b50610421600480360381019061041c9190611dc7565b610c6c565b005b34801561042f57600080fd5b5061044a60048036038101906104459190611f24565b610cce565b604051610457919061231a565b60405180910390f35b34801561046c57600080fd5b50610475610d75565b604051610482919061255c565b60405180910390f35b34801561049757600080fd5b506104b260048036038101906104ad9190611d34565b610d7b565b6040516104bf91906122ff565b60405180910390f35b3480156104d457600080fd5b506104ef60048036038101906104ea9190611d07565b610e0f565b005b60007f80ac58cd000000000000000000000000000000000000000000000000000000007bffffffffffffffffffffffffffffffffffffffffffffffffffffffff1916827bffffffffffffffffffffffffffffffffffffffffffffffffffffffff191614806105bc57507f5b5e139f000000000000000000000000000000000000000000000000000000007bffffffffffffffffffffffffffffffffffffffffffffffffffffffff1916827bffffffffffffffffffffffffffffffffffffffffffffffffffffffff1916145b806105cc57506105cb82610f07565b5b9050919050565b6060600080546105e290612781565b80601f016020809104026020016040519081016040528092919081815260200182805461060e90612781565b801561065b5780601f106106305761010080835404028352916020019161065b565b820191906000526020600020905b81548152906001019060200180831161063e57829003601f168201915b5050505050905090565b600061067082610f71565b6106af576040517f08c379a00000000000000000000000000000000000000000000000000000000081526004016106a6906124bc565b60405180910390fd5b6004600083815260200190815260200160002060009054906101000a900473ffffffffffffffffffffffffffffffffffffffff169050919050565b60006106f582610924565b90508073ffffffffffffffffffffffffffffffffffffffff168373ffffffffffffffffffffffffffffffffffffffff161415610766576040517f08c379a000000000000000000000000000000000000000000000000000000000815260040161075d9061251c565b60405180910390fd5b8073ffffffffffffffffffffffffffffffffffffffff16610785610fdd565b73ffffffffffffffffffffffffffffffffffffffff1614806107b457506107b3816107ae610fdd565b610d7b565b5b6107f3576040517f08c379a00000000000000000000000000000000000000000000000000000000081526004016107ea9061243c565b60405180910390fd5b6107fd8383610fe5565b505050565b61081361080d610fdd565b8261109e565b610852576040517f08c379a00000000000000000000000000000000000000000000000000000000081526004016108499061253c565b60405180910390fd5b61085d83838361117c565b505050565b61086a610fdd565b73ffffffffffffffffffffffffffffffffffffffff16610888610b22565b73ffffffffffffffffffffffffffffffffffffffff16146108de576040517f08c379a00000000000000000000000000000000000000000000000000000000081526004016108d5906124dc565b60405180910390fd5b60006108ea60076113e3565b90506108f660076113f1565b6109008282611407565b5050565b61091f83838360405180602001604052806000815250610c6c565b505050565b6000806002600084815260200190815260200160002060009054906101000a900473ffffffffffffffffffffffffffffffffffffffff169050600073ffffffffffffffffffffffffffffffffffffffff168173ffffffffffffffffffffffffffffffffffffffff1614156109cd576040517f08c379a00000000000000000000000000000000000000000000000000000000081526004016109c49061247c565b60405180910390fd5b80915050919050565b60008073ffffffffffffffffffffffffffffffffffffffff168273ffffffffffffffffffffffffffffffffffffffff161415610a47576040517f08c379a0000000000000000000000000000000000000000000000000000000008152600401610a3e9061245c565b60405180910390fd5b600360008373ffffffffffffffffffffffffffffffffffffffff1673ffffffffffffffffffffffffffffffffffffffff168152602001908152602001600020549050919050565b610a96610fdd565b73ffffffffffffffffffffffffffffffffffffffff16610ab4610b22565b73ffffffffffffffffffffffffffffffffffffffff1614610b0a576040517f08c379a0000000000000000000000000000000000000000000000000000000008152600401610b01906124dc565b60405180910390fd5b610b146000611425565b565b60078060000154905081565b6000600660009054906101000a900473ffffffffffffffffffffffffffffffffffffffff16905090565b606060018054610b5b90612781565b80601f0160208091040260200160405190810160405280929190818152602001828054610b8790612781565b8015610bd45780601f10610ba957610100808354040283529160200191610bd4565b820191906000526020600020905b815481529060010190602001808311610bb757829003601f168201915b5050505050905090565b60085481565b806008819055506008543414610c2f576040517f08c379a0000000000000000000000000000000000000000000000000000000008152600401610c26906123bc565b60405180910390fd5b6000610c3b60076113e3565b9050610c4760076113f1565b610c518382611407565b505050565b610c68610c61610fdd565b83836114eb565b5050565b610c7d610c77610fdd565b8361109e565b610cbc576040517f08c379a0000000000000000000000000000000000000000000000000000000008152600401610cb39061253c565b60405180910390fd5b610cc884848484611658565b50505050565b6060610cd982610f71565b610d18576040517f08c379a0000000000000000000000000000000000000000000000000000000008152600401610d0f906124fc565b60405180910390fd5b6000610d226116b4565b90506000815111610d425760405180602001604052806000815250610d6d565b80610d4c846116d4565b604051602001610d5d929190612274565b6040516020818303038152906040525b915050919050565b60095481565b6000600560008473ffffffffffffffffffffffffffffffffffffffff1673ffffffffffffffffffffffffffffffffffffffff16815260200190815260200160002060008373ffffffffffffffffffffffffffffffffffffffff1673ffffffffffffffffffffffffffffffffffffffff16815260200190815260200160002060009054906101000a900460ff16905092915050565b610e17610fdd565b73ffffffffffffffffffffffffffffffffffffffff16610e35610b22565b73ffffffffffffffffffffffffffffffffffffffff1614610e8b576040517f08c379a0000000000000000000000000000000000000000000000000000000008152600401610e82906124dc565b60405180910390fd5b600073ffffffffffffffffffffffffffffffffffffffff168173ffffffffffffffffffffffffffffffffffffffff161415610efb576040517f08c379a0000000000000000000000000000000000000000000000000000000008152600401610ef29061235c565b60405180910390fd5b610f0481611425565b50565b60007f01ffc9a7000000000000000000000000000000000000000000000000000000007bffffffffffffffffffffffffffffffffffffffffffffffffffffffff1916827bffffffffffffffffffffffffffffffffffffffffffffffffffffffff1916149050919050565b60008073ffffffffffffffffffffffffffffffffffffffff166002600084815260200190815260200160002060009054906101000a900473ffffffffffffffffffffffffffffffffffffffff1673ffffffffffffffffffffffffffffffffffffffff1614159050919050565b600033905090565b816004600083815260200190815260200160002060006101000a81548173ffffffffffffffffffffffffffffffffffffffff021916908373ffffffffffffffffffffffffffffffffffffffff160217905550808273ffffffffffffffffffffffffffffffffffffffff1661105883610924565b73ffffffffffffffffffffffffffffffffffffffff167f8c5be1e5ebec7d5bd14f71427d1e84f3dd0314c0f7b2291e5b200ac8c7c3b92560405160405180910390a45050565b60006110a982610f71565b6110e8576040517f08c379a00000000000000000000000000000000000000000000000000000000081526004016110df9061241c565b60405180910390fd5b60006110f383610924565b90508073ffffffffffffffffffffffffffffffffffffffff168473ffffffffffffffffffffffffffffffffffffffff16148061113557506111348185610d7b565b5b8061117357508373ffffffffffffffffffffffffffffffffffffffff1661115b84610665565b73ffffffffffffffffffffffffffffffffffffffff16145b91505092915050565b8273ffffffffffffffffffffffffffffffffffffffff1661119c82610924565b73ffffffffffffffffffffffffffffffffffffffff16146111f2576040517f08c379a00000000000000000000000000000000000000000000000000000000081526004016111e99061237c565b60405180910390fd5b600073ffffffffffffffffffffffffffffffffffffffff168273ffffffffffffffffffffffffffffffffffffffff161415611262576040517f08c379a0000000000000000000000000000000000000000000000000000000008152600401611259906123dc565b60405180910390fd5b61126d838383611835565b611278600082610fe5565b6001600360008573ffffffffffffffffffffffffffffffffffffffff1673ffffffffffffffffffffffffffffffffffffffff16815260200190815260200160002060008282546112c89190612697565b925050819055506001600360008473ffffffffffffffffffffffffffffffffffffffff1673ffffffffffffffffffffffffffffffffffffffff168152602001908152602001600020600082825461131f9190612610565b92505081905550816002600083815260200190815260200160002060006101000a81548173ffffffffffffffffffffffffffffffffffffffff021916908373ffffffffffffffffffffffffffffffffffffffff160217905550808273ffffffffffffffffffffffffffffffffffffffff168473ffffffffffffffffffffffffffffffffffffffff167fddf252ad1be2c89b69c2b068fc378daa952ba7f163c4a11628f55a4df523b3ef60405160405180910390a46113de83838361183a565b505050565b600081600001549050919050565b6001816000016000828254019250508190555050565b61142182826040518060200160405280600081525061183f565b5050565b6000600660009054906101000a900473ffffffffffffffffffffffffffffffffffffffff16905081600660006101000a81548173ffffffffffffffffffffffffffffffffffffffff021916908373ffffffffffffffffffffffffffffffffffffffff1602179055508173ffffffffffffffffffffffffffffffffffffffff168173ffffffffffffffffffffffffffffffffffffffff167f8be0079c531659141344cd1fd0a4f28419497f9722a3daafe3b4186f6b6457e060405160405180910390a35050565b8173ffffffffffffffffffffffffffffffffffffffff168373ffffffffffffffffffffffffffffffffffffffff16141561155a576040517f08c379a0000000000000000000000000000000000000000000000000000000008152600401611551906123fc565b60405180910390fd5b80600560008573ffffffffffffffffffffffffffffffffffffffff1673ffffffffffffffffffffffffffffffffffffffff16815260200190815260200160002060008473ffffffffffffffffffffffffffffffffffffffff1673ffffffffffffffffffffffffffffffffffffffff16815260200190815260200160002060006101000a81548160ff0219169083151502179055508173ffffffffffffffffffffffffffffffffffffffff168373ffffffffffffffffffffffffffffffffffffffff167f17307eab39ab6107e8899845ad3d59bd9653f200f220920489ca2b5937696c318360405161164b91906122ff565b60405180910390a3505050565b61166384848461117c565b61166f8484848461189a565b6116ae576040517f08c379a00000000000000000000000000000000000000000000000000000000081526004016116a59061233c565b60405180910390fd5b50505050565b6060604051806060016040528060368152602001612e4c60369139905090565b6060600082141561171c576040518060400160405280600181526020017f30000000000000000000000000000000000000000000000000000000000000008152509050611830565b600082905060005b6000821461174e578080611737906127e4565b915050600a826117479190612666565b9150611724565b60008167ffffffffffffffff81111561176a5761176961291a565b5b6040519080825280601f01601f19166020018201604052801561179c5781602001600182028036833780820191505090505b5090505b60008514611829576001826117b59190612697565b9150600a856117c4919061282d565b60306117d09190612610565b60f81b8183815181106117e6576117e56128eb565b5b60200101907effffffffffffffffffffffffffffffffffffffffffffffffffffffffffffff1916908160001a905350600a856118229190612666565b94506117a0565b8093505050505b919050565b505050565b505050565b6118498383611a31565b611856600084848461189a565b611895576040517f08c379a000000000000000000000000000000000000000000000000000000000815260040161188c9061233c565b60405180910390fd5b505050565b60006118bb8473ffffffffffffffffffffffffffffffffffffffff16611c0b565b15611a24578373ffffffffffffffffffffffffffffffffffffffff1663150b7a026118e4610fdd565b8786866040518563ffffffff1660e01b815260040161190694939291906122b3565b602060405180830381600087803b15801561192057600080fd5b505af192505050801561195157506040513d601f19601f8201168201806040525081019061194e9190611ef7565b60015b6119d4573d8060008114611981576040519150601f19603f3d011682016040523d82523d6000602084013e611986565b606091505b506000815114156119cc576040517f08c379a00000000000000000000000000000000000000000000000000000000081526004016119c39061233c565b60405180910390fd5b805181602001fd5b63150b7a0260e01b7bffffffffffffffffffffffffffffffffffffffffffffffffffffffff1916817bffffffffffffffffffffffffffffffffffffffffffffffffffffffff191614915050611a29565b600190505b949350505050565b600073ffffffffffffffffffffffffffffffffffffffff168273ffffffffffffffffffffffffffffffffffffffff161415611aa1576040517f08c379a0000000000000000000000000000000000000000000000000000000008152600401611a989061249c565b60405180910390fd5b611aaa81610f71565b15611aea576040517f08c379a0000000000000000000000000000000000000000000000000000000008152600401611ae19061239c565b60405180910390fd5b611af660008383611835565b6001600360008473ffffffffffffffffffffffffffffffffffffffff1673ffffffffffffffffffffffffffffffffffffffff1681526020019081526020016000206000828254611b469190612610565b92505081905550816002600083815260200190815260200160002060006101000a81548173ffffffffffffffffffffffffffffffffffffffff021916908373ffffffffffffffffffffffffffffffffffffffff160217905550808273ffffffffffffffffffffffffffffffffffffffff16600073ffffffffffffffffffffffffffffffffffffffff167fddf252ad1be2c89b69c2b068fc378daa952ba7f163c4a11628f55a4df523b3ef60405160405180910390a4611c076000838361183a565b5050565b6000808273ffffffffffffffffffffffffffffffffffffffff163b119050919050565b6000611c41611c3c8461259c565b612577565b905082815260208101848484011115611c5d57611c5c61294e565b5b611c6884828561273f565b509392505050565b600081359050611c7f81612def565b92915050565b600081359050611c9481612e06565b92915050565b600081359050611ca981612e1d565b92915050565b600081519050611cbe81612e1d565b92915050565b600082601f830112611cd957611cd8612949565b5b8135611ce9848260208601611c2e565b91505092915050565b600081359050611d0181612e34565b92915050565b600060208284031215611d1d57611d1c612958565b5b6000611d2b84828501611c70565b91505092915050565b60008060408385031215611d4b57611d4a612958565b5b6000611d5985828601611c70565b9250506020611d6a85828601611c70565b9150509250929050565b600080600060608486031215611d8d57611d8c612958565b5b6000611d9b86828701611c70565b9350506020611dac86828701611c70565b9250506040611dbd86828701611cf2565b9150509250925092565b60008060008060808587031215611de157611de0612958565b5b6000611def87828801611c70565b9450506020611e0087828801611c70565b9350506040611e1187828801611cf2565b925050606085013567ffffffffffffffff811115611e3257611e31612953565b5b611e3e87828801611cc4565b91505092959194509250565b60008060408385031215611e6157611e60612958565b5b6000611e6f85828601611c70565b9250506020611e8085828601611c85565b9150509250929050565b60008060408385031215611ea157611ea0612958565b5b6000611eaf85828601611c70565b9250506020611ec085828601611cf2565b9150509250929050565b600060208284031215611ee057611edf612958565b5b6000611eee84828501611c9a565b91505092915050565b600060208284031215611f0d57611f0c612958565b5b6000611f1b84828501611caf565b91505092915050565b600060208284031215611f3a57611f39612958565b5b6000611f4884828501611cf2565b91505092915050565b611f5a816126cb565b82525050565b611f69816126dd565b82525050565b6000611f7a826125cd565b611f8481856125e3565b9350611f9481856020860161274e565b611f9d8161295d565b840191505092915050565b6000611fb3826125d8565b611fbd81856125f4565b9350611fcd81856020860161274e565b611fd68161295d565b840191505092915050565b6000611fec826125d8565b611ff68185612605565b935061200681856020860161274e565b80840191505092915050565b600061201f6032836125f4565b915061202a8261296e565b604082019050919050565b60006120426026836125f4565b915061204d826129bd565b604082019050919050565b60006120656025836125f4565b915061207082612a0c565b604082019050919050565b6000612088601c836125f4565b915061209382612a5b565b602082019050919050565b60006120ab6014836125f4565b91506120b682612a84565b602082019050919050565b60006120ce6024836125f4565b91506120d982612aad565b604082019050919050565b60006120f16019836125f4565b91506120fc82612afc565b602082019050919050565b6000612114602c836125f4565b915061211f82612b25565b604082019050919050565b60006121376038836125f4565b915061214282612b74565b604082019050919050565b600061215a602a836125f4565b915061216582612bc3565b604082019050919050565b600061217d6029836125f4565b915061218882612c12565b604082019050919050565b60006121a06020836125f4565b91506121ab82612c61565b602082019050919050565b60006121c3602c836125f4565b91506121ce82612c8a565b604082019050919050565b60006121e66020836125f4565b91506121f182612cd9565b602082019050919050565b6000612209602f836125f4565b915061221482612d02565b604082019050919050565b600061222c6021836125f4565b915061223782612d51565b604082019050919050565b600061224f6031836125f4565b915061225a82612da0565b604082019050919050565b61226e81612735565b82525050565b60006122808285611fe1565b915061228c8284611fe1565b91508190509392505050565b60006020820190506122ad6000830184611f51565b92915050565b60006080820190506122c86000830187611f51565b6122d56020830186611f51565b6122e26040830185612265565b81810360608301526122f48184611f6f565b905095945050505050565b60006020820190506123146000830184611f60565b92915050565b600060208201905081810360008301526123348184611fa8565b905092915050565b6000602082019050818103600083015261235581612012565b9050919050565b6000602082019050818103600083015261237581612035565b9050919050565b6000602082019050818103600083015261239581612058565b9050919050565b600060208201905081810360008301526123b58161207b565b9050919050565b600060208201905081810360008301526123d58161209e565b9050919050565b600060208201905081810360008301526123f5816120c1565b9050919050565b60006020820190508181036000830152612415816120e4565b9050919050565b6000602082019050818103600083015261243581612107565b9050919050565b600060208201905081810360008301526124558161212a565b9050919050565b600060208201905081810360008301526124758161214d565b9050919050565b6000602082019050818103600083015261249581612170565b9050919050565b600060208201905081810360008301526124b581612193565b9050919050565b600060208201905081810360008301526124d5816121b6565b9050919050565b600060208201905081810360008301526124f5816121d9565b9050919050565b60006020820190508181036000830152612515816121fc565b9050919050565b600060208201905081810360008301526125358161221f565b9050919050565b6000602082019050818103600083015261255581612242565b9050919050565b60006020820190506125716000830184612265565b92915050565b6000612581612592565b905061258d82826127b3565b919050565b6000604051905090565b600067ffffffffffffffff8211156125b7576125b661291a565b5b6125c08261295d565b9050602081019050919050565b600081519050919050565b600081519050919050565b600082825260208201905092915050565b600082825260208201905092915050565b600081905092915050565b600061261b82612735565b915061262683612735565b9250827fffffffffffffffffffffffffffffffffffffffffffffffffffffffffffffffff0382111561265b5761265a61285e565b5b828201905092915050565b600061267182612735565b915061267c83612735565b92508261268c5761268b61288d565b5b828204905092915050565b60006126a282612735565b91506126ad83612735565b9250828210156126c0576126bf61285e565b5b828203905092915050565b60006126d682612715565b9050919050565b60008115159050919050565b60007fffffffff0000000000000000000000000000000000000000000000000000000082169050919050565b600073ffffffffffffffffffffffffffffffffffffffff82169050919050565b6000819050919050565b82818337600083830152505050565b60005b8381101561276c578082015181840152602081019050612751565b8381111561277b576000848401525b50505050565b6000600282049050600182168061279957607f821691505b602082108114156127ad576127ac6128bc565b5b50919050565b6127bc8261295d565b810181811067ffffffffffffffff821117156127db576127da61291a565b5b80604052505050565b60006127ef82612735565b91507fffffffffffffffffffffffffffffffffffffffffffffffffffffffffffffffff8214156128225761282161285e565b5b600182019050919050565b600061283882612735565b915061284383612735565b9250826128535761285261288d565b5b828206905092915050565b7f4e487b7100000000000000000000000000000000000000000000000000000000600052601160045260246000fd5b7f4e487b7100000000000000000000000000000000000000000000000000000000600052601260045260246000fd5b7f4e487b7100000000000000000000000000000000000000000000000000000000600052602260045260246000fd5b7f4e487b7100000000000000000000000000000000000000000000000000000000600052603260045260246000fd5b7f4e487b7100000000000000000000000000000000000000000000000000000000600052604160045260246000fd5b600080fd5b600080fd5b600080fd5b600080fd5b6000601f19601f8301169050919050565b7f4552433732313a207472616e7366657220746f206e6f6e20455243373231526560008201527f63656976657220696d706c656d656e7465720000000000000000000000000000602082015250565b7f4f776e61626c653a206e6577206f776e657220697320746865207a65726f206160008201527f6464726573730000000000000000000000000000000000000000000000000000602082015250565b7f4552433732313a207472616e736665722066726f6d20696e636f72726563742060008201527f6f776e6572000000000000000000000000000000000000000000000000000000602082015250565b7f4552433732313a20746f6b656e20616c7265616479206d696e74656400000000600082015250565b7f506c6561736520706179202e3035206574686572000000000000000000000000600082015250565b7f4552433732313a207472616e7366657220746f20746865207a65726f2061646460008201527f7265737300000000000000000000000000000000000000000000000000000000602082015250565b7f4552433732313a20617070726f766520746f2063616c6c657200000000000000600082015250565b7f4552433732313a206f70657261746f7220717565727920666f72206e6f6e657860008201527f697374656e7420746f6b656e0000000000000000000000000000000000000000602082015250565b7f4552433732313a20617070726f76652063616c6c6572206973206e6f74206f7760008201527f6e6572206e6f7220617070726f76656420666f7220616c6c0000000000000000602082015250565b7f4552433732313a2062616c616e636520717565727920666f7220746865207a6560008201527f726f206164647265737300000000000000000000000000000000000000000000602082015250565b7f4552433732313a206f776e657220717565727920666f72206e6f6e657869737460008201527f656e7420746f6b656e0000000000000000000000000000000000000000000000602082015250565b7f4552433732313a206d696e7420746f20746865207a65726f2061646472657373600082015250565b7f4552433732313a20617070726f76656420717565727920666f72206e6f6e657860008201527f697374656e7420746f6b656e0000000000000000000000000000000000000000602082015250565b7f4f776e61626c653a2063616c6c6572206973206e6f7420746865206f776e6572600082015250565b7f4552433732314d657461646174613a2055524920717565727920666f72206e6f60008201527f6e6578697374656e7420746f6b656e0000000000000000000000000000000000602082015250565b7f4552433732313a20617070726f76616c20746f2063757272656e74206f776e6560008201527f7200000000000000000000000000000000000000000000000000000000000000602082015250565b7f4552433732313a207472616e736665722063616c6c6572206973206e6f74206f60008201527f776e6572206e6f7220617070726f766564000000000000000000000000000000602082015250565b612df8816126cb565b8114612e0357600080fd5b50565b612e0f816126dd565b8114612e1a57600080fd5b50565b612e26816126e9565b8114612e3157600080fd5b50565b612e3d81612735565b8114612e4857600080fd5b5056fe697066733a2f2f516d584e626a584546574350617033766a746d31314469364a634b3246797935667377734374675756366878686f2fa2646970667358221220d758d7d67f1d00f8a6064b8eb416386ab51d2cf1d47026e1497f0af9385b091d64736f6c63430008070033",
  "linkReferences": {},
  "deployedLinkReferences": {}
}